{
  "contractName": "SecureVoting",
  "abi": [
    {
      "inputs": [],
      "stateMutability": "nonpayable",
      "type": "constructor"
    },
    {
      "anonymous": false,
      "inputs": [
        {
          "indexed": false,
          "internalType": "uint256",
          "name": "candidateID",
          "type": "uint256"
        }
      ],
      "name": "AddedCandidate",
      "type": "event"
    },
    {
      "inputs": [
        {
          "internalType": "string",
          "name": "name",
          "type": "string"
        },
        {
          "internalType": "string",
          "name": "party",
          "type": "string"
        }
      ],
      "name": "addCandidate",
      "outputs": [],
      "stateMutability": "nonpayable",
      "type": "function"
    },
    {
      "inputs": [
        {
          "internalType": "address",
          "name": "uid",
          "type": "address"
        },
        {
          "internalType": "uint256",
          "name": "candidateID",
          "type": "uint256"
        }
      ],
      "name": "vote",
      "outputs": [],
      "stateMutability": "nonpayable",
      "type": "function"
    },
    {
      "inputs": [
        {
          "internalType": "uint256",
          "name": "candidateID",
          "type": "uint256"
        }
      ],
      "name": "totalVotes",
      "outputs": [
        {
          "internalType": "uint256",
          "name": "",
          "type": "uint256"
        }
      ],
      "stateMutability": "view",
      "type": "function",
      "constant": true
    },
    {
      "inputs": [],
      "name": "getNumOfCandidates",
      "outputs": [
        {
          "internalType": "uint256",
          "name": "",
          "type": "uint256"
        }
      ],
      "stateMutability": "view",
      "type": "function",
      "constant": true
    },
    {
      "inputs": [],
      "name": "getNumOfVoters",
      "outputs": [
        {
          "internalType": "uint256",
          "name": "",
          "type": "uint256"
        }
      ],
      "stateMutability": "view",
      "type": "function",
      "constant": true
    },
    {
      "inputs": [],
      "name": "getCandidates",
      "outputs": [
        {
          "components": [
            {
              "internalType": "string",
              "name": "name",
              "type": "string"
            },
            {
              "internalType": "string",
              "name": "party",
              "type": "string"
            },
            {
              "internalType": "uint256",
              "name": "votes",
              "type": "uint256"
            },
            {
              "internalType": "uint256",
              "name": "uid",
              "type": "uint256"
            }
          ],
          "internalType": "struct SecureVoting.CandidateDao[]",
          "name": "",
          "type": "tuple[]"
        }
      ],
      "stateMutability": "view",
      "type": "function",
      "constant": true
    },
    {
      "inputs": [
        {
          "internalType": "uint256",
          "name": "candidateID",
          "type": "uint256"
        }
      ],
      "name": "getCandidate",
      "outputs": [
        {
          "components": [
            {
              "internalType": "string",
              "name": "name",
              "type": "string"
            },
            {
              "internalType": "string",
              "name": "party",
              "type": "string"
            },
            {
              "internalType": "uint256",
              "name": "votes",
              "type": "uint256"
            },
            {
              "internalType": "bool",
              "name": "doesExist",
              "type": "bool"
            }
          ],
          "internalType": "struct SecureVoting.Candidate",
          "name": "",
          "type": "tuple"
        }
      ],
      "stateMutability": "view",
      "type": "function",
      "constant": true
    },
    {
      "inputs": [],
      "name": "hasAlreadyVoted",
      "outputs": [
        {
          "internalType": "bool",
          "name": "",
          "type": "bool"
        }
      ],
      "stateMutability": "view",
      "type": "function",
      "constant": true
    },
    {
      "inputs": [],
      "name": "isOwner",
      "outputs": [
        {
          "internalType": "bool",
          "name": "",
          "type": "bool"
        }
      ],
      "stateMutability": "view",
      "type": "function",
      "constant": true
    }
  ],
  "bytecode": "0x608060405234801561001057600080fd5b50336000806101000a81548173ffffffffffffffffffffffffffffffffffffffff021916908373ffffffffffffffffffffffffffffffffffffffff16021790555061131d806100606000396000f3fe608060405234801561001057600080fd5b50600436106100935760003560e01c8063449b6db211610066578063449b6db2146101325780635f74bbde1461015057806365fc783c1461016c5780638f32d59b1461018a578063e8685ba1146101a857610093565b806306a49fce1461009857806319e6e158146100b657806326541b56146100e657806335b8e82014610102575b600080fd5b6100a06101c6565b6040516100ad9190610b8d565b60405180910390f35b6100d060048036038101906100cb9190610be5565b6103db565b6040516100dd9190610c21565b60405180910390f35b61010060048036038101906100fb9190610ca1565b6103fb565b005b61011c60048036038101906101179190610be5565b6105c5565b6040516101299190610da7565b60405180910390f35b61013a6107aa565b6040516101479190610dd8565b60405180910390f35b61016a60048036038101906101659190610e51565b610801565b005b6101746108fb565b6040516101819190610c21565b60405180910390f35b610192610905565b60405161019f9190610dd8565b60405180910390f35b6101b061095c565b6040516101bd9190610c21565b60405180910390f35b6060600060015467ffffffffffffffff8111156101e6576101e5610e91565b5b60405190808252806020026020018201604052801561021f57816020015b61020c610966565b8152602001906001900390816102045790505b50905060005b6001548110156103d357604051806080016040528060036000848152602001908152602001600020600001805461025b90610eef565b80601f016020809104026020016040519081016040528092919081815260200182805461028790610eef565b80156102d45780601f106102a9576101008083540402835291602001916102d4565b820191906000526020600020905b8154815290600101906020018083116102b757829003601f168201915b505050505081526020016003600084815260200190815260200160002060010180546102ff90610eef565b80601f016020809104026020016040519081016040528092919081815260200182805461032b90610eef565b80156103785780601f1061034d57610100808354040283529160200191610378565b820191906000526020600020905b81548152906001019060200180831161035b57829003601f168201915b5050505050815260200160036000848152602001908152602001600020600201548152602001828152508282815181106103b5576103b4610f20565b5b602002602001018190525080806103cb90610f7e565b915050610225565b508091505090565b600060036000838152602001908152602001600020600201549050919050565b60008054906101000a900473ffffffffffffffffffffffffffffffffffffffff1673ffffffffffffffffffffffffffffffffffffffff163373ffffffffffffffffffffffffffffffffffffffff161461045357600080fd5b60006001600081548092919061046890610f7e565b919050559050604051806080016040528086868080601f016020809104026020016040519081016040528093929190818152602001838380828437600081840152601f19601f82011690508083019250505050505050815260200184848080601f016020809104026020016040519081016040528093929190818152602001838380828437600081840152601f19601f82011690508083019250505050505050815260200160008152602001600115158152506003600083815260200190815260200160002060008201518160000190816105439190611172565b5060208201518160010190816105599190611172565b506040820151816002015560608201518160030160006101000a81548160ff0219169083151502179055509050507fec542c373a064661ffef02d633752debf28f3e6c9f253680822d9ccf8b47aec6816040516105b69190610c21565b60405180910390a15050505050565b6105cd61098e565b600115156003600084815260200190815260200160002060030160009054906101000a900460ff1615150361076a576003600083815260200190815260200160002060405180608001604052908160008201805461062a90610eef565b80601f016020809104026020016040519081016040528092919081815260200182805461065690610eef565b80156106a35780601f10610678576101008083540402835291602001916106a3565b820191906000526020600020905b81548152906001019060200180831161068657829003601f168201915b505050505081526020016001820180546106bc90610eef565b80601f01602080910402602001604051908101604052809291908181526020018280546106e890610eef565b80156107355780601f1061070a57610100808354040283529160200191610735565b820191906000526020600020905b81548152906001019060200180831161071857829003601f168201915b50505050508152602001600282015481526020016003820160009054906101000a900460ff16151515158152505090506107a5565b6040517f08c379a000000000000000000000000000000000000000000000000000000000815260040161079c906112c7565b60405180910390fd5b919050565b6000600460003373ffffffffffffffffffffffffffffffffffffffff1673ffffffffffffffffffffffffffffffffffffffff16815260200190815260200160002060010160009054906101000a900460ff16905090565b600115156003600083815260200190815260200160002060030160009054906101000a900460ff161515036108f7576002600081548092919061084390610f7e565b9190505550600360008281526020019081526020016000206002016000815461086b90610f7e565b91905081905550604051806040016040528082815260200160011515815250600460008473ffffffffffffffffffffffffffffffffffffffff1673ffffffffffffffffffffffffffffffffffffffff1681526020019081526020016000206000820151816000015560208201518160010160006101000a81548160ff0219169083151502179055509050505b5050565b6000600254905090565b60008060009054906101000a900473ffffffffffffffffffffffffffffffffffffffff1673ffffffffffffffffffffffffffffffffffffffff163373ffffffffffffffffffffffffffffffffffffffff1614905090565b6000600154905090565b6040518060800160405280606081526020016060815260200160008152602001600081525090565b60405180608001604052806060815260200160608152602001600081526020016000151581525090565b600081519050919050565b600082825260208201905092915050565b6000819050602082019050919050565b600081519050919050565b600082825260208201905092915050565b60005b83811015610a1e578082015181840152602081019050610a03565b60008484015250505050565b6000601f19601f8301169050919050565b6000610a46826109e4565b610a5081856109ef565b9350610a60818560208601610a00565b610a6981610a2a565b840191505092915050565b6000819050919050565b610a8781610a74565b82525050565b60006080830160008301518482036000860152610aaa8282610a3b565b91505060208301518482036020860152610ac48282610a3b565b9150506040830151610ad96040860182610a7e565b506060830151610aec6060860182610a7e565b508091505092915050565b6000610b038383610a8d565b905092915050565b6000602082019050919050565b6000610b23826109b8565b610b2d81856109c3565b935083602082028501610b3f856109d4565b8060005b85811015610b7b5784840389528151610b5c8582610af7565b9450610b6783610b0b565b925060208a01995050600181019050610b43565b50829750879550505050505092915050565b60006020820190508181036000830152610ba78184610b18565b905092915050565b600080fd5b600080fd5b610bc281610a74565b8114610bcd57600080fd5b50565b600081359050610bdf81610bb9565b92915050565b600060208284031215610bfb57610bfa610baf565b5b6000610c0984828501610bd0565b91505092915050565b610c1b81610a74565b82525050565b6000602082019050610c366000830184610c12565b92915050565b600080fd5b600080fd5b600080fd5b60008083601f840112610c6157610c60610c3c565b5b8235905067ffffffffffffffff811115610c7e57610c7d610c41565b5b602083019150836001820283011115610c9a57610c99610c46565b5b9250929050565b60008060008060408587031215610cbb57610cba610baf565b5b600085013567ffffffffffffffff811115610cd957610cd8610bb4565b5b610ce587828801610c4b565b9450945050602085013567ffffffffffffffff811115610d0857610d07610bb4565b5b610d1487828801610c4b565b925092505092959194509250565b60008115159050919050565b610d3781610d22565b82525050565b60006080830160008301518482036000860152610d5a8282610a3b565b91505060208301518482036020860152610d748282610a3b565b9150506040830151610d896040860182610a7e565b506060830151610d9c6060860182610d2e565b508091505092915050565b60006020820190508181036000830152610dc18184610d3d565b905092915050565b610dd281610d22565b82525050565b6000602082019050610ded6000830184610dc9565b92915050565b600073ffffffffffffffffffffffffffffffffffffffff82169050919050565b6000610e1e82610df3565b9050919050565b610e2e81610e13565b8114610e3957600080fd5b50565b600081359050610e4b81610e25565b92915050565b60008060408385031215610e6857610e67610baf565b5b6000610e7685828601610e3c565b9250506020610e8785828601610bd0565b9150509250929050565b7f4e487b7100000000000000000000000000000000000000000000000000000000600052604160045260246000fd5b7f4e487b7100000000000000000000000000000000000000000000000000000000600052602260045260246000fd5b60006002820490506001821680610f0757607f821691505b602082108103610f1a57610f19610ec0565b5b50919050565b7f4e487b7100000000000000000000000000000000000000000000000000000000600052603260045260246000fd5b7f4e487b7100000000000000000000000000000000000000000000000000000000600052601160045260246000fd5b6000610f8982610a74565b91507fffffffffffffffffffffffffffffffffffffffffffffffffffffffffffffffff8203610fbb57610fba610f4f565b5b600182019050919050565b60008190508160005260206000209050919050565b60006020601f8301049050919050565b600082821b905092915050565b6000600883026110287fffffffffffffffffffffffffffffffffffffffffffffffffffffffffffffffff82610feb565b6110328683610feb565b95508019841693508086168417925050509392505050565b6000819050919050565b600061106f61106a61106584610a74565b61104a565b610a74565b9050919050565b6000819050919050565b61108983611054565b61109d61109582611076565b848454610ff8565b825550505050565b600090565b6110b26110a5565b6110bd818484611080565b505050565b5b818110156110e1576110d66000826110aa565b6001810190506110c3565b5050565b601f821115611126576110f781610fc6565b61110084610fdb565b8101602085101561110f578190505b61112361111b85610fdb565b8301826110c2565b50505b505050565b600082821c905092915050565b60006111496000198460080261112b565b1980831691505092915050565b60006111628383611138565b9150826002028217905092915050565b61117b826109e4565b67ffffffffffffffff81111561119457611193610e91565b5b61119e8254610eef565b6111a98282856110e5565b600060209050601f8311600181146111dc57600084156111ca578287015190505b6111d48582611156565b86555061123c565b601f1984166111ea86610fc6565b60005b82811015611212578489015182556001820191506020850194506020810190506111ed565b8683101561122f578489015161122b601f891682611138565b8355505b6001600288020188555050505b505050505050565b600082825260208201905092915050565b7f4e6f6e20657369737465206e657373756e2063616e64696461746f20636f6e2060008201527f7175656c6c2749442e0000000000000000000000000000000000000000000000602082015250565b60006112b1602983611244565b91506112bc82611255565b604082019050919050565b600060208201905081810360008301526112e0816112a4565b905091905056fea2646970667358221220c9725a9328622423917421dfaae35c8160f80e369d49ac0daaa780d7b25843d664736f6c63430008110033",
  "immutableReferences": {},
  "source": "// SPDX-License-Identifier: MIT\npragma solidity >=0.8.0;\n\ncontract SecureVoting {\n    // Questo evento serve per loggare quando viene aggiunto un nuovo candidato\n    // Serve per il frontend per avere il riferimento alla votazione.\n    event AddedCandidate(uint256 candidateID);\n\n    // Indirizzo della persona che vota.\n    address owner;\n\n    // Costruttore.\n    constructor() {\n        owner = msg.sender;\n    }\n\n    // Modifier che si assicura che effettivamente ad eseguire il resto del codice\n    // sia la persona che sta votando.\n    modifier onlyOwner() {\n        require(msg.sender == owner);\n\n        // Questo carattere si usa in Solidity, solo in una funzione modifier, per far si\n        // che si possa eseguire il resto del codice.\n        _;\n    }\n\n    // Struct che descrive il Votante.\n    struct Voter {\n        uint256 candidateIDVote;\n        bool hasVoted;\n    }\n\n    // Struct che descrive un Candidato.\n    struct Candidate {\n        string name;\n        string party;\n        uint256 votes;\n        // Ci assicuriamo che esista davvero.\n        bool doesExist;\n    }\n\n    struct CandidateDao {\n        string name;\n        string party;\n        uint256 votes;\n        uint256 uid;\n    }\n\n    // Variabili di stato che vengono salvate sulla Blockchain per il numero di voti totali e il numero di candidati totale.\n    uint256 numCandidates;\n    uint256 numVoters;\n\n    // Hash-table che ci permettono di tenere conto di candidati e voti.\n    mapping(uint256 => Candidate) candidates;\n    mapping(address => Voter) voters;\n\n    function addCandidate(string calldata name, string calldata party)\n        public\n        onlyOwner\n    {\n        // Aggiorna il numero di Candidati totale.\n        uint256 candidateID = numCandidates++;\n        // Crea un nuovo candidato e lo aggiunge al mapping.\n        candidates[candidateID] = Candidate(name, party, 0, true);\n        // Logghiamo che  stato aggiunto un candidato.\n        emit AddedCandidate(candidateID);\n    }\n\n    function vote(address uid, uint256 candidateID) public {\n        // Controlla se esiste il candidato per cui votiamo.\n        if (candidates[candidateID].doesExist == true) {\n            numVoters++; // Numero di voti totale viene aggiornato\n            ++candidates[candidateID].votes;\n            voters[uid] = Voter(candidateID, true);\n        }\n    }\n\n    // Conta il numero di voti per un Candidato tramite un loop di tutte le votazioni effettuate.\n    function totalVotes(uint256 candidateID) public view returns (uint256) {\n        return candidates[candidateID].votes;\n    }\n\n    // Ritorna il numero di candidati totale.\n    function getNumOfCandidates() public view returns (uint256) {\n        return numCandidates;\n    }\n\n    // Ritorna il numero di voti totale.\n    function getNumOfVoters() public view returns (uint256) {\n        return numVoters;\n    }\n\n    // Ritorna tutti i candidati\n    function getCandidates() public view returns (CandidateDao[] memory) {\n        CandidateDao[] memory toBeRet = new CandidateDao[](numCandidates);\n        for (uint256 i = 0; i < numCandidates; i++) {\n            toBeRet[i] = CandidateDao(\n                candidates[i].name,\n                candidates[i].party,\n                candidates[i].votes,\n                i\n            );\n        }\n        return toBeRet;\n    }\n\n    // Ritorna tutte le informazioni su un Candidato.\n    function getCandidate(uint256 candidateID)\n        public\n        view\n        returns (Candidate memory)\n    {\n        if (candidates[candidateID].doesExist == true) {\n            return candidates[candidateID];\n        } else {\n            revert(\"Non esiste nessun candidato con quell'ID.\");\n        }\n    }\n\n    function hasAlreadyVoted() public view returns (bool) {\n        return voters[msg.sender].hasVoted;\n    }\n\n    function isOwner() public view returns (bool) {\n        return msg.sender == owner;\n    }\n}\n",
  "sourcePath": "/Users/giovannirapa/Documents/GitHub/SecureVoting/contracts/SecureVoting.sol",
  "compiler": {
    "name": "solc",
    "version": "0.8.17+commit.8df45f5f.Emscripten.clang"
  },
  "schemaVersion": "3.4.11",
  "updatedAt": "2023-01-22T14:12:22.765Z",
  "networkType": "ethereum",
  "devdoc": {
    "kind": "dev",
    "methods": {},
    "version": 1
  },
  "userdoc": {
    "kind": "user",
    "methods": {},
    "version": 1
  }
}